:1000000064C1000089C1000087C100000C94BA0BD4
:100010000C94BA0B0C94BA0B7FC100007DC1000098
:100020007BC100008BC2000077C1000075C10000D9
:1000300073C1000071C100006FC100006DC10000FC
:100040000C94550969C100002EC700005EC700006E
:1000500063C1000061C100005FC100005DC100001C
:100060005BC1000059C100007F8182848587888A36
:100070008B8D8F909293959698999B9C9E9FA1A310
:10008000A4A6A7A8AAABADAEB0B1B3B4B6B7B8BA80
:10009000BBBCBEBFC1C2C3C5C6C7C8CACBCCCDCF0F
:1000A000D0D1D2D3D5D6D7D8D9DADBDCDDDFE0E1C9
:1000B000E2E3E4E4E5E6E7E8E9EAEBECECEDEEEFB9
:1000C000EFF0F1F2F2F3F4F4F5F5F6F7F7F8F8F9EA
:1000D000F9F9FAFAFBFBFBFCFCFCFDFDFDFDFEFE65
:1000E000FEFEFEFEFEFEFEFEFFFEFEFEFEFEFEFE2F
:1000F000FEFEFEFDFDFDFDFCFCFCFBFBFBFAFAF940
:10010000F9F9F8F8F7F7F6F5F5F4F4F3F2F2F1F09F
:10011000EFEFEEEDECECEBEAE9E8E7E6E5E4E4E34B
:10012000E2E1E0DFDDDCDBDAD9D8D7D6D5D3D2D136
:10013000D0CFCDCCCBCAC8C7C6C5C3C2C1BFBEBC59
:10014000BBBAB8B7B6B4B3B1B0AEADABAAA8A7A6A8
:10015000A4A3A19F9E9C9B999896959392908F8D16
:100160008B8A8887858482817F7D7C7A7977767493
:1001700073716F6E6C6B696866656362605F5D5B0F
:100180005A585756545351504E4D4B4A484746447F
:100190004342403F3D3C3B39383736343332312FD0
:1001A0002E2D2C2B2928272625242322211F1E1DF6
:1001B0001C1B1A1A19181716151413121211100FE6
:1001C0000F0E0D0C0C0B0A0A090908070706060595
:1001D00005050404030303020202010101010000FA
:1001E000000000000000000000000000000000000F
:1001F00000000001010101020202030303040405DF
:100200000505060607070809090A0A0B0C0C0D0E5E
:100210000F0F10111212131415161718191A1A1B92
:100220001C1D1E1F2122232425262728292B2C2D87
:100230002E2F31323334363738393B3C3D3F404244
:1002400043444647484A4B4D4E50515354565758D5
:100250005A5B5D5F606263656668696B6C6E6F7147
:1002600073747677797A7C7D0000000800020100C3
:100270000003040700000000000000000102040861
:100280001020408001020408102001020408102000
:10029000040404040404040402020202020203032C
:1002A00003030303000000002300260029000000D0
:1002B0000000250028002B0000000000240027007B
:1002C0002A00E4021505B307210511241FBECFEF54
:1002D000D8E0DEBFCDBF11E0A0E0B1E0E0E9FBE196
:1002E00002C005900D92A237B107D9F727E0A2E727
:1002F000B1E001C01D92A133B207E1F712E0C8ECF2
:10030000D2E004C02297FE010E94B80DC23CD10782
:10031000C9F7C1D70C94BC0D73CE61E084E00E9494
:10032000690A61E084E05FD461E083E00C94690ACB
:1003300061E084E058C460E084E055D469E170E095
:1003400080E090E00C94CE0980E091E0E6CF7093DD
:100350007501609374019093730180937201089505
:10036000209128013091290121503109F894809180
:100370007B0140917A01789490E001968F719927E2
:1003800050E084179507C9F040919C0150919D0160
:1003900080917401909175014817590711F41092DA
:1003A000A2018091A201811110C0F89490917B016B
:1003B00080917A017894981711F081E0089575D1B1
:1003C00080E091E0B5DF80E008958091A3019091F5
:1003D000A4014091A8015091A9018F3F910509F016
:1003E00090F580919C0190919D0187709927892BB0
:1003F00089F480919C0190919D0163E09695879589
:100400006A95E1F7E0917201F0917301E80FF91F2D
:10041000808103C08091A50186958093A50180917C
:10042000A50180FD10C08091A0019091A1018427B9
:1004300095276091A6017091A70186279727909331
:10044000A1018093A0016091A0017091A101809110
:100450009E0190919F01860F971F90939F0180931B
:100460009E01E0919E01F0919F01EE0FEF2FEE1F94
:10047000FF0BF195E223F323E859FF4FE4918091BC
:10048000A0019091A1018417950711F4E695E05C15
:10049000F894A0917B01B0E0A458BE4FEC938091FA
:1004A0007B0190E001968F71992780937B0178946E
:1004B0008091A3019091A40193959093A4018093BE
:1004C000A3018091A3019091A4014091AA015091B0
:1004D000AB018417950708F449CF80919C01909156
:1004E0009D01019690939D0180939C018091A301B1
:1004F0009091A401841B950B9093A4018093A30178
:1005000035CF8091A8019091A9019093A10180938A
:10051000A00110929F0110929E0110929D011092D5
:100520009C011092A4011092A30181E08093A2018A
:1005300017DF99D080E091E0FEDEB0C01F920F92ED
:100540000FB60F9211242F938F939F93AF93BF9366
:10055000EF93FF9390917B0180917A01981318C0DB
:100560008091A201882321F18091760190917701F9
:10057000A0917801B09179010196A11DB11D8093E0
:10058000760190937701A0937801B093790110C020
:10059000E0917A01F0E0E458FE4F208180917A01E9
:1005A00090E001968F71992780937A012093B4008F
:1005B000FF91EF91BF91AF919F918F912F910F90EC
:1005C0000FBE0F901F901895CF92DF92EF92FF927F
:1005D000CF93DF93C0902401D0902501E0902601B5
:1005E000F09027019E2D8D2D7C2D662720EB34E089
:1005F00040E050E00E94550D3093AB012093AA01DA
:10060000C0912801D09129019E01A0EBB4E00E9485
:10061000930DE7E0660F771F881F991FEA95D1F7C2
:10062000A70196010E94550D3093A9012093A801BE
:100630009E01A8E9B8E00E94930DF7E0660F771FCE
:10064000881F991FFA95D1F7A70196010E94550DB1
:100650003093A7012093A601DF91CF91FF90EF90F7
:10066000DF90CF900895E6EBF0E080818F79808372
:10067000A0EBB0E08C9183608C93E1EBF0E08081A3
:10068000877F80838C918F7080628C938081887F3C
:10069000816080838FE78093B4000895B89AE0E783
:1006A000F0E080818160808308958FE78093B400BB
:1006B000E0E7F0E080818E7F808308958F929F92A3
:1006C000AF92BF92CF92DF92EF92FF920F931F9360
:1006D000CF93DF93CDB7DEB768970FB6F894DEBF40
:1006E0000FBECDBF6C017B015A01490188E1E2E0F8
:1006F000F1E0DE01119601900D928A95E1F763E039
:1007000070E0CE010196E7D08FE296D0C501D8D037
:1007100088E692D0C601D4D08FE28ED0C701D0D067
:100720008FE48AD0C401CCD080E286D0C801C8D082
:1007300044D14FD168960FB6F894DEBF0FBECDBF3F
:10074000DF91CF911F910F91FF90EF90DF90CF90AD
:10075000BF90AF909F908F9008950F931F93CF936A
:100760004091AF035091B0032091AC013091AD01A5
:100770009091AE03C9E061E070E0C15009F44EC051
:10078000A82FA1708695FA01EA27AF0156954795E3
:10079000E0FF04C008E0402704E85027A1111EC074
:1007A000211510E13107D0F5F90193E0F695E795B1
:1007B0009A95E1F7E255FE4FD901A770BB278B014F
:1007C00002C0000F111FAA95E2F7D801A0959081F1
:1007D000A923A0832F5F3F4F90E0CFCF2115E0E109
:1007E0003E07E0F4F901A3E0F695E795AA95E1F755
:1007F000E255FE4FD901A770BB278B0102C0000F45
:10080000111FAA95E2F7D801B081BA2BB0832F5FF0
:100810003F4F9F5F953008F4B0CFC2CF5093B003E5
:100820004093AF033093AD012093AC019093AE039E
:10083000CF911F910F91089590CF1F93CF93DF9386
:100840008091AC019091AD0120E030E0AEE7B0E0E6
:1008500041E050E0811510E1910750F5FC01C3E043
:10086000F695E795CA95E1F7BC0167707727ED012A
:10087000022E02C0D595C7950A94E2F71C2FE255C7
:10088000FE4FEA0102C0CC0FDD1F6A95E2F7BE0100
:1008900010FF04C07081762B708304C06095708156
:1008A000672360832F5F3F4F01962830310591F613
:1008B0009093AD018093AC01DF91CF911F9108958A
:1008C000CF93DF93EC018991882311F046DFFBCFB2
:1008D000DF91CF9108956F927F928F929F92AF9206
:1008E000BF92CF92DF92EF92FF920F931F93CF931D
:1008F000DF9300D0CDB7DEB76B011092AD0110923F
:10090000AC011092AE032FEF3FEF3093B003209372
:10091000AF030DE210E089839A838FDF0150110944
:1009200089819A8101151105B1F73C0100E010E0C1
:10093000560181E0A81AB1080C151D0554F5730184
:10094000470186189708F70181917F01882319F0E4
:10095000880F03DFF5CF86E08816910431F080E43C
:10096000FCDEFFEF8F1A9F0AF6CFF30187810A158D
:100970001B0531F490E0C096880F991F816002C07A
:10098000805D880FEADE0F5F1F4FF8E06F0E711C6D
:10099000D3CF83E0E2DE80EF0F900F90DF91CF9115
:1009A0001F910F91FF90EF90DF90CF90BF90AF908D
:1009B0009F908F907F906F90D0CECF938091AF0318
:1009C000C091B0038095C9DE8C2F8095C6DECF9193
:1009D00034CF6091AC017091AD018EEA91E0B7DC4B
:1009E00090CD26E040E052EC61E070E087E496E0D4
:1009F000FAD140E05BE460E070E088E296E0B6D7D0
:100A000040E05BE460E070E089E096E0AFD761E051
:100A10008DE05FD599CCFC019F01281B390B241771
:100A2000350714F46193F8CF089520E046E065E0BF
:100A300088E296E06DD720E049E068E089E096E042
:100A400067C789E096E010D788E296E00DC70F935C
:100A50001F93CF93DF9388E296E064D688E296E016
:100A600035D6892B09F4BAC088E296E0A1D5C82F03
:100A7000E0914706F09148060190F081E02D682F43
:100A800087E496E00995C63749F544E650E060E012
:100A900081EB93E0C0DFE0910906F0910A06028045
:100AA000F381E02D43E050E06AE271E089E096E0F6
:100AB0000995C0E1D7E289E096E07AD54AE050E0B6
:100AC000BC0187E496E07FD321972097A1F761E0EE
:100AD0008DE0DF91CF911F910F9134C5C13609F0A0
:100AE0007DC044E650E060E085EA95E094DF44E6AE
:100AF00050E060E081E495E08EDF44E650E060E0A5
:100B00008DED94E088DF44E650E060E089E794E012
:100B100082DF44E650E060E085E194E07CDF24E69B
:100B200030E045EA55E069E088E296E07FD324E6CC
:100B300030E041E455E069E088E296E077D324E6CE
:100B400030E04DED54E069E088E296E06FD324E6B2
:100B500030E049E754E069E088E296E067D324E6B4
:100B600030E045E154E06AE088E296E05FD365EA70
:100B700075E087E496E078D261E475E087E496E07A
:100B800073D26DED74E087E496E06ED269E774E0AD
:100B900087E496E069D265E174E087E496E064D288
:100BA0006EE271E087E496E06AD205E114E029E79D
:100BB00034E04DED54E061E475E085EA95E07EDDDA
:100BC000CFDB882321F061E08DE00DD0F9CF60E02C
:100BD0008DE0DF91CF911F910F9105C0DF91CF91F3
:100BE0001F910F91089590E0FC01E458FD4F24916E
:100BF000FC01E057FD4FE491EE23A1F0F0E0EE0F91
:100C0000FF1FE255FD4FA591B4919FB7611105C03B
:100C1000F8948C912095822303C0F8948C91822BB8
:100C20008C939FBF0895FC01818D228D90E0805CA4
:100C30009F4F821B91098F7399270895FC01918D15
:100C4000828D981731F0828DE80FF11D858D90E02F
:100C500008958FEF9FEF0895FC01918D828D981775
:100C600061F0828DDF01A80FB11D5D968C91928D90
:100C70009F5F9F73928F90E008958FEF9FEF08958D
:100C80008AEA97E0892B41F080E090E0892B21F0FF
:100C900061D181110C9400000895FC01848DDF0165
:100CA000A80FB11DA35ABF4F2C91848D90E00196DF
:100CB0008F739927848FA689B7892C93A089B189CE
:100CC0008C9180648C93938D848D981306C00288D8
:100CD000F389E02D80818F7D80830895CF93DF930A
:100CE000EC01888D8823C1F0EA89FB89808185FD2C
:100CF00005C0A889B9898C9186FD0EC00FB607FC86
:100D0000F5CF808185FFF2CFA889B9898C9185FFC5
:100D1000EDCFCE01C2DFE8CFDF91CF910895CF9222
:100D2000DF92FF920F931F93CF93DF931F92CDB764
:100D3000DEB76C0181E0D60158968C9358975B968C
:100D40009C915B975C968C915C97981307C050962A
:100D5000ED91FC915197808185FD2DC0F601038DA9
:100D600010E00F5F1F4F0F731127F02EF601848DD7
:100D7000F81210C00FB607FCF9CFD6015096ED91CE
:100D8000FC915197808185FFF1CFC601698385DF92
:100D90006981ECCF838DE80FF11DE35AFF4F60832B
:100DA000D6015B960C935B975296ED91FC9153970D
:100DB000808180620CC0D6015696ED91FC915797C8
:100DC00060835096ED91FC9151978081806480837F
:100DD00081E090E00F90DF91CF911F910F91FF90F4
:100DE000DF90CF900895BF92CF92DF92EF92FF9263
:100DF000CF93DF93EC016A017B01B22EE889F98978
:100E000082E08083411581EE58076105710599F0F4
:100E100060E079E08DE390E0A701960146D621508D
:100E2000310941095109569547953795279521155F
:100E300080E1380790F0E889F989108260E874E869
:100E40008EE190E0A701960130D621503109410989
:100E500051095695479537952795EC85FD85308343
:100E6000EE85FF852083188EEC89FD89B082EA89A2
:100E7000FB89808180618083EA89FB898081886029
:100E80008083EA89FB89808180688083EA89FB8985
:100E900080818F7D8083DF91CF91FF90EF90DF90F5
:100EA000CF90BF9008951F920F920FB60F9211240A
:100EB0002F938F939F93EF93FF93E0915706F091B9
:100EC00058068081E0915D06F0915E0682FD12C0B9
:100ED0009081809160068F5F8F73209161068217E9
:100EE00051F0E0916006F0E0E95BF94F958F809357
:100EF000600601C08081FF91EF919F918F912F91AA
:100F00000F900FBE0F901F9018951F920F920FB663
:100F10000F9211242F933F934F935F936F937F937F
:100F20008F939F93AF93BF93EF93FF9387E496E0E4
:100F3000B4DEFF91EF91BF91AF919F918F917F911F
:100F40006F915F914F913F912F910F900FBE0F9036
:100F50001F90189587E496E066DE21E0892B09F45E
:100F600020E0822F089510924A061092490688EEDA
:100F700093E0A0E0B0E080934B0690934C06A093E2
:100F80004D06B0934E0685E491E090934806809319
:100F9000470685EC90E0909354068093530684ECCA
:100FA00090E0909356068093550680EC90E09093E5
:100FB00058068093570681EC90E090935A068093F0
:100FC000590682EC90E090935C0680935B0686EC79
:100FD00090E090935E0680935D06109260061092FA
:100FE000610610926206109263060895CF92DF9216
:100FF000EF92FF920F931F93CF93DF937C016A01CF
:10100000EB0100E010E00C151D0571F06991D701AE
:10101000ED91FC910190F081E02DC7010995892B9C
:1010200019F00F5F1F4FEFCFC801DF91CF911F91D4
:101030000F91FF90EF90DF90CF90089561157105AB
:1010400081F0DB010D900020E9F7AD01415051091D
:10105000461B570BDC01ED91FC910280F381E02DE2
:10106000099480E090E00895E9CFDC01ED91FC91D6
:101070000190F081E02D099461E571E0DFCF0F93DD
:101080001F93CF93DF93EC01D9DF8C01CE01F4DF06
:10109000800F911FDF91CF911F910F9108958F9233
:1010A0009F92AF92BF92DF92EF92FF920F931F93A6
:1010B000CF93DF93CDB7DEB7A1970FB6F894DEBF1D
:1010C0000FBECDBF7C01F42FD52ECB0119A222304B
:1010D00008F42AE08E010F5D1F4F822E912CA12C67
:1010E000B12C6F2F7D2DA5019401DFD4F22FD32ECB
:1010F000CA01015011096A3014F4E0E301C0E7E3CA
:10110000E60FD801EC93232B242B252B51F7B801A4
:10111000C70194DFA1960FB6F894DEBF0FBECDBF16
:10112000DF91CF911F910F91FF90EF90DF90BF90D3
:10113000AF909F908F900895CF92DF92EF92FF92A1
:101140000F931F93CF93DF93EC016A017B0121156D
:10115000310579F4E881F9810190F081E02D642F67
:10116000DF91CF911F910F91FF90EF90DF90CF9083
:1011700009942A303105D9F477FF18C06DE275DF84
:101180008C0144275527BA014C195D096E097F0966
:101190002AE0CE0184DF800F911FDF91CF911F9154
:1011A0000F91FF90EF90DF90CF9008952AE0B70164
:1011B000A601CE01DF91CF911F910F91FF90EF908B
:1011C000DF90CF906CCF9A01AB01662757FD6095F9
:1011D000762FB2CF0F931F93CF93DF93EC01AFD055
:1011E000688779878A879B87E881F9810680F781FC
:1011F000E02DCE01099597FF14C0A1D0088519856F
:101200002A853B85601B710B820B930B0C811D8122
:101210002E813F81601771078207930728F38FEFB4
:101220009FEFDF91CF911F910F910895AF92BF92E1
:10123000CF92DF92EF92FF920F931F93CF93DF93A2
:101240006C01790121153105B1F08A01C0E0D0E0CF
:10125000A62EBB24A7FCB094C601BCDF97FD0EC030
:101260008A159B0559F0F80181938F012196CE15BF
:10127000DF0591F703C080E090E001C0CE01DF916F
:10128000CF911F910F91FF90EF90DF90CF90BF9083
:10129000AF9008950895B9D0FDDFA3DBC0E4D6E098
:1012A000D6DB2097E9F3ECDCFBCF1F920F920FB651
:1012B0000F9211242F933F938F939F93AF93BF93DC
:1012C0008091E5069091E606A091E706B091E806C8
:1012D0003091E40623E0230F2D3720F40196A11D61
:1012E000B11D05C026E8230F0296A11DB11D209354
:1012F000E4068093E5069093E606A093E706B09394
:10130000E8068091E9069091EA06A091EB06B0917B
:10131000EC060196A11DB11D8093E9069093EA06A3
:10132000A093EB06B093EC06BF91AF919F918F9184
:101330003F912F910F900FBE0F901F9018952FB7D0
:10134000F8946091E5067091E6068091E706909129
:10135000E8062FBF08953FB7F8948091E906909171
:10136000EA06A091EB06B091EC0626B5A89B05C055
:101370002F3F19F00196A11DB11D3FBF6627782FA1
:10138000892F9A2F620F711D811D911D42E0660FFA
:10139000771F881F991F4A95D1F708958F929F92C2
:1013A000AF92BF92CF92DF92EF92FF926B017C01DE
:1013B000D2DF4B015C01C114D104E104F104E1F07E
:1013C000F6D0C9DF681979098A099B09683E73401C
:1013D0008105910580F321E0C21AD108E108F108E6
:1013E00088EE880E83E0981EA11CB11CC114D104A4
:1013F000E104F10431F7DFCFFF90EF90DF90CF9061
:10140000BF90AF909F908F900895789484B582603C
:1014100084BD84B5816084BD85B5826085BD85B598
:10142000816085BDEEE6F0E0808181608083E1E847
:10143000F0E010828081826080838081816080837F
:10144000E0E8F0E0808181608083E1EBF0E0808182
:1014500084608083E0EBF0E0808181608083EAE754
:10146000F0E08081846080838081826080838081DD
:10147000816080838081806880831092C10008959C
:10148000833081F028F4813099F08230A1F0089502
:101490008730A9F08830B9F08430D1F48091800091
:1014A0008F7D03C0809180008F77809380000895A6
:1014B00084B58F7702C084B58F7D84BD08958091F7
:1014C000B0008F7703C08091B0008F7D8093B00013
:1014D0000895CF93DF9390E0FC01E458FD4F2491F1
:1014E000FC01E057FD4F8491882349F190E0880F7B
:1014F000991FFC01E854FD4FA591B49182559D4F71
:10150000FC01C591D4919FB7611108C0F8948C91EA
:10151000209582238C93888182230AC0623051F403
:10152000F8948C91322F309583238C938881822B71
:10153000888304C0F8948C91822B8C939FBFDF9199
:10154000CF9108950F931F93CF93DF931F92CDB741
:10155000DEB7282F30E0F901E859FD4F8491F901F9
:10156000E458FD4F1491F901E057FD4F0491002319
:10157000C1F0882319F0698383DF6981E02FF0E0EF
:10158000EE0FFF1FE255FD4FA591B4919FB7F89460
:101590008C91611103C01095812301C0812B8C9324
:1015A0009FBF0F90DF91CF911F910F9108950895E4
:1015B00020912F073091300728173907B9F49091FF
:1015C000ED068091EE06981789F0E091ED06F0E0C7
:1015D000E151F94F80812091ED0630E02F5F3F4FC0
:1015E0002F7333272093ED0690E008958FEF9FEF40
:1015F00008951F93CF93DF93DC015C968D919C91AE
:101600005D97009749F481E090E013969C938E9348
:10161000129780E090E03BC05196ED91FC9152977B
:1016200050962C915097322F30951FB75E964C9163
:101630005E9741FB772770F941FD6095F8944081F2
:10164000772311F0422B01C043234083EC01219703
:10165000F1F748E0508160FF02C0522B01C05323D4
:101660005083EC012197F1F76695415099F78081FD
:10167000772311F0832301C0822B80831FBF5C96E8
:101680008D919C915D970197F1F781E090E0DF915A
:10169000CF911F910895089520912F073091300721
:1016A0002817390781F49091ED068091EE0698177E
:1016B00051F0E091ED06F0E0E151F94F808199277A
:1016C00087FD909508958FEF9FEF089520912F0744
:1016D000309130072817390761F48091EE06209188
:1016E000ED0690E0805C9F4F821B910960E470E002
:1016F000C9C180E090E00895E0912F07F091300794
:10170000E817F90769F4A389B4899C9185898095C4
:1017100089238C931092300710922F0781E008954F
:1017200080E00895CF93DF93EC018A8D9B8D892B08
:10173000E9F080912F07909130078C179D07B1F049
:10174000009709F0D9DF8E8D8E7F8E8F1092EE0676
:101750001092ED06D0933007C0932F07EB89FC89D8
:1017600080819D89892B808381E001C080E0DF91A9
:10177000CF9108951F920F920FB60F9211242F93BD
:101780003F934F935F936F937F938F939F93AF9309
:10179000BF93EF93FF93E0912F07F09130073097BD
:1017A00009F451C0868DA685B785958581FF04C053
:1017B0008C91892329F447C08C91892309F043C077
:1017C000A389B4899C918589809589238C93868986
:1017D00097890197F1F7208D318DA685B78575859D
:1017E00058E040E0C9010197F1F7842F90E095950A
:1017F0008795482F6C91672309F04068515091F705
:10180000868D81FD40958091EE0690E001968F7364
:1018100099272091ED06281749F0A091EE06B0E037
:10182000A151B94F4C938093EE0603C0868D816021
:10183000868F828D938D0197F1F7A389B4898C915E
:101840009589892B8C93FF91EF91BF91AF919F91D7
:101850008F917F916F915F914F913F912F910F9059
:101860000FBE0F901F90189526E631E0FC013183E2
:10187000208342CF1F93CF93DF93EC01162F6E8D01
:101880006695617081E06827812F5CDE61E0812FC1
:1018900020DE812F90E0FC01E458FD4FE491E88BBD
:1018A000FC01E057FD4FE491F0E0EE0FFF1FE25521
:1018B000FD4F859194919A8B898BDF91CF911F91E8
:1018C00008951F93CF93DF93EC01162F60E0812FD3
:1018D00000DE8E8D81FD03C061E0812F33DE1C8729
:1018E000812F90E0FC01E458FD4FE491ED87FC016D
:1018F000E057FD4FE491F0E0EE0FFF1FEC55FD4F78
:10190000859194919F878E87DF91CF911F91089544
:10191000FF920F931F93CF93DF93EC01F62E522F7C
:101920001B821A8208EE13E020E030E00C831D8356
:101930002E833F8386E691E0998388831F8A1E8ADF
:10194000198E188E1B8E1A8E1D8E1C8E8E8D8E7F7C
:1019500050FB81F98E8F642FCE018CDF6F2DCE016D
:10196000DF91CF911F910F91FF90ABCFCF93DF937A
:10197000EC019A01AB011B8E1A8E198E188E1F8AEC
:101980001E8A60E079E08DE390E0B1D0C901243097
:10199000310520F0B9016350710902C061E070E0C7
:1019A0007D8F6C8FEC85E63108F068C0B9017695C3
:1019B00067956431710518F06351710902C061E0E7
:1019C00070E07F8B6E8B069718F0C901059702C0F7
:1019D00081E090E0998F888FC901880F991F820F4D
:1019E000931F96958795969587958D30910510F064
:1019F0000C9702C081E090E09B8F8A8F2091680055
:101A0000E83050F091E0EE3008F490E081E001C061
:101A1000880F9A95EAF701C084E0822B80936800D2
:101A20002C85283038F02E3040F0263148F48CE6F2
:101A300090E008C08DE690E005C08BE690E002C023
:101A400080E090E09C8B8B8B283030F481E001C0EB
:101A5000880F2A95EAF70DC0822F90E02E3010F4FF
:101A6000089701C00E9791E001C0990F8A95EAF797
:101A7000892F8D8B8C8D9D8D0197F1F7CE01DF9194
:101A8000CF9150CE97FB072E16F4009406D077FD29
:101A900008D058D007FC05D03EF4909581959F4F13
:101AA0000895709561957F4F0895A1E21A2EAA1BA3
:101AB000BB1BFD010DC0AA1FBB1FEE1FFF1FA217FE
:101AC000B307E407F50720F0A21BB30BE40BF50BFB
:101AD000661F771F881F991F1A9469F76095709584
:101AE000809590959B01AC01BD01CF010895052E15
:101AF00097FB16F400940FD057FD05D0D6DF07FCF6
:101B000002D046F408C050954095309521953F4F3E
:101B10004F4F5F4F089590958095709561957F4FD9
:101B20008F4F9F4F0895A29FB001B39FC001A39F05
:101B3000700D811D1124911DB29F700D811D112406
:101B4000911D0895AA1BBB1B51E107C0AA1FBB1F13
:101B5000A617B70710F0A61BB70B881F991F5A9539
:101B6000A9F780959095BC01CD010895EE0FFF1F58
:101B70000590F491E02D099412E0C8ECD2E003C086
:101B8000FE01F6DF2296CA3CD107D1F7F894FFCFC9
:101B90001E01415052530000000056413754534E2D
:101BA000000B5749444532000002000000008D013F
:101BB0009B01980124F40000000276740D00204778
:101BC0005053206461746120526563696576656471
:101BD00000000000008F06F60713062C061E066E96
:101BE000060D0A006E616E00696E66006F76660013
:101BF0002E0000000000F90AF607660BD80A4C0B0D
:021C00004B0B8C
:00000001FF
